:10000000003C00204D0600003D06000041060000B7
:1000100000000000000000000000000000000000E0
:100020000000000000000000000000004506000085
:10003000000000000000000049060000E907000081
:1000400010B5064C2378002B07D1054B002B02D0AE
:10005000044800E000BF0123237010BD58000020B9
:1000600000000000A41C0000044B10B5002B03D0BE
:100070000349044800E000BF10BDC0460000000076
:100080005C000020A41C00001B4B1B78002B0AD135
:100090001A4B1B781A4A11785B18DBB21370194B94
:1000A00080229202DA61144A13780133DBB21370B2
:1000B000134B1B78DBB2F02B04D8114B1B78DBB24F
:1000C000092B0BD80D4A13785BB25B425BB21370FD
:1000D00013780B4A11785B18DBB21370064B1B7850
:1000E000074A1278DBB2934200D07047054B80225A
:1000F0009202DA61F9E7C046740000200000002097
:10010000010000200044004110B5C3699B07FCD4E6
:1001100003680224A3430360C369DB07FCD40368BC
:100120000124234303600368DB07FCD4C369DB07B6
:10013000FCD4C3699B07F9D4084B1A430260C36916
:100140005B07FCD4C0239B0243608181C3699B078A
:10015000FCD4036802221343036010BD0400004076
:10016000037EDB07FCD589B201857047037E5B0700
:10017000FCD5438BDB0705D4438B9B0702D4438B11
:100180005B0702D5024B01221A70008DC0B2704786
:1001900075000020F8B5040003689A8B120707D495
:1001A0000822FF329B5CDB062FD500F061FB2CE0C0
:1001B00008229A8378329A7280214900112058547B
:1001C00040260621FF315E5482256D005A55104AA3
:1001D0005168104F3940C02080050143516051697A
:1001E0003940084350610C4911600C491161516854
:1001F0000B48084080218902014351605168890BF6
:10020000890351605E55002323712079F8BDC046F3
:1002100098010020FFFFFF8F9800002018010020A8
:10022000FF3F00F00160002303714371034B8360C3
:100230000B78022213430B707047C04695010000F3
:1002400010B5394AD36920210B43D361374B38317C
:100250005A5C012422435A543C22985C4939884311
:100260009854985C0621084398545920195C2143FE
:100270001954995C4A3801409954995C60200143B3
:1002800099542B4B2B4A5A801A0053785BB2002B9F
:10029000FBDB294A137801210B4313709378DB07AA
:1002A000FCD4264B1B689B03DB0E1F2B36D0224948
:1002B0000A8D9B012248024013430B851F4B1B688C
:1002C0005B02DB0E1F2B2BD01B490A8D1F208243A4
:1002D00013430B85194B1A689201520F072A21D03C
:1002E000154B198D1203174801400A431A851978D6
:1002F0007F220A401A701A7804210A431A701248A1
:1003000058621A890C218A431A811A890B398A4347
:100310001A818022002101F03EFB10BD1A3BC6E786
:10032000023BD1E7043ADBE700040040004400410F
:10033000000C004006400000005000412460800096
:100340003FF8FFFFFF8FFFFF98010020F0B5C64682
:1003500000B5050016001C0098465A01214B9B1859
:1003600010335B685B005B0F033301229A40B2429B
:100370002BD862011B4B9B1858698022120602433E
:100380005A616201174B9B181A0019615B69B1042D
:10039000890C9B0B9B030B435361536912490B4020
:1003A0005361083464012C190223E3716279823BA2
:1003B000134363714046083040012818C3799B07F6
:1003C000FCD5300004BC9046F0BD27007B1E9F4149
:1003D000BF01064BFF183200380001F0D3FA390094
:1003E000CFE7C04698010020FF3F00F01801002031
:1003F00070B505000E0014001B4B1B78002B14D1A8
:100400001A4B1B4A1A645A6C920B92035A645A6C28
:1004100018490A405A64A2225200835C40210B43CF
:100420008354114B443AFF3A1A704823FF33EB5C74
:100430000020DB0716D50D4B5B6C9B049B0CA34285
:1004400003D20A4B5C6CA404A40C220008493000BF
:1004500001F098FA4823FF330122EA54024B0022AC
:100460001A70200070BDC046760000209801002060
:10047000D8000020FF3F00F0002906D10622FF32FD
:10048000835C10210B43835470470622FF32835C48
:1004900020210B438354F7E70A4A53699B0B9B03C4
:1004A00053610823FF330222C2540622FF32815CCB
:1004B000883BFF3B0B4383540822FF32835C9B073E
:1004C000FCD570479801002080235B421943C9B2D4
:1004D0008172704770B5A0235B000322C254134B96
:1004E0005A6C134C2240C02189050A435A644025A6
:1004F0004622FF3285540F4A1A6490225200302659
:1005000086545A6B22401143596380219222520033
:100510008154094A1A63B022520085545A6F22400E
:100520005A67B2235B00C15470BDC04698010020D9
:10053000FFFFFF8FD800002058010020024A5378A7
:100540005BB2002BFBDB7047000C0040024910221D
:10055000CB681A42FCD070470008004070B52C4AA6
:1005600053681E218B431C390B435360294B2A4A85
:100570009A829A8A0A439A8219000222CB681A4206
:10058000FCD0264C0123A360FFF7D8FF244B636007
:10059000FFF7D4FF8223DB016380FFF7CFFF1D4C01
:1005A000A38C80229343A384FFF7D0FF1D4BE3620B
:1005B000FFF7CCFFA38C1C4A1343A384FFF7C6FFAD
:1005C000A38C02221343A384220080214020D368FD
:1005D0001942FCD0D3681842F9D0FFF7B7FF0F4D8E
:1005E0000024AC60FFF7AAFF104B6B60FFF7A6FF7B
:1005F0000F4A104B53601048036A1B021B0AC021AC
:1006000009060B43036294600723136070BDC04664
:1006100000400041000800400C060000000C0040B3
:1006200001050100B805FF7D040A00000007030072
:1006300010E000E0E703000000ED00E00EBEFEE782
:100640000DBEFEE705BEFEE702BEFEE710B5164A88
:10065000164B9A4215D0164A134B9A4211D01A00E3
:10066000124B9A420DD20333124A9B1A9B08013354
:100670009B0000220C480E498C58845004329A4248
:10068000FAD10D4A0D4B9A420AD009D2111D0333FB
:100690005B1A032083435B18002102C29A42FCD1FB
:1006A00000F00EF8FEE7C0460000002058000020D1
:1006B000A81C00000400002058000020A80300200F
:1006C000F8B500AF3C4B1B68013323D03B4B3C4A91
:1006D0001360043BFF2213421CD13A49C73A8A5C9B
:1006E000D2070FD5384A00211160334A126882F3CD
:1006F0000888FF229343354A9360314B1B681B687F
:10070000184707E0304A1168314A914229D12E4BEF
:1007100000221A60FFF722FF62B600F01DFF00F012
:1007200069F804002B4B802292029A6008228821EB
:100730005A5010315A50802212059A609A61264A06
:10074000264B53602148036A1B021B0AC02109067D
:100750000B4303620023936007331360204E01258F
:1007600011E0194A1A4911601E4A013A002AFCD1C7
:10077000154A00211160B8E73378002B0BD1184BD4
:100780001B78002B0DD02000A36898470028F3D0D9
:10079000134B1D70F0E7002000F04CFB00F0EAFB6B
:1007A000FCE700F04DFF0028EDD0012000F042FBF7
:1007B00000F0E0FBFCE7C046002000000420000041
:1007C0001802002000040040FC7F002000ED00E043
:1007D000358173070044004110E000E0E7030000AA
:1007E0007700002048E8010010B5FFF74DFC00F04D
:1007F00099FB10BD10B5054C054B2360FFF720FD9C
:1008000021682000FFF70EFD200010BD1C02002013
:100810000050004170B5C0B005000C001600080083
:1008200001F0C1F8400002306B46187003236A469D
:1008300053702378002B17D07608012E16DD012285
:10084000694602310134881C0B8001322378002B69
:1008500002D00100B242F5DB5200002369462800B5
:10086000FFF774FD40B070BD0122F5E70122F3E708
:10087000F0B583B0050004680823FF331022E2546A
:10088000B84B1A78B84802705A78B84E32709978D6
:10089000B74A11801188DF783F02394311801979F6
:1008A000B44A118011885F793F02394311809979E8
:1008B000B14A11801188DB791B020B43138082231C
:1008C0005B004022E254337802781B021343AB4AA8
:1008D000934200D11EE125DC80225200934255D084
:1008E00012DD81225200934200D172E100DA6CE104
:1008F000FF32FF32934200D107E1A14A93420CD16B
:100900002000FFF7C9FD3CE0812B00D1BFE0822B26
:1009100000D1C4E0802B00D1B1E001212000FFF71D
:10092000ABFD2EE090221201934200D196E012DD41
:10093000944A934200D1B7E125DD934A934200D116
:10094000B6E1924A9342E8D1894B1B886B71200033
:10095000FFF7A2FD15E0D022D20093421BD08822DF
:100960001201934200D183E0A022D2009342D4D15D
:100970002000FFF791FD7E4B198889B22868FFF7A8
:10098000A3FD03B0F0BD824A9342C6D101212000ED
:10099000FFF772FDF5E7764B1B881B0A012B18D079
:1009A000734B1B881B0A022B22D0714B1B881B0A1E
:1009B000032B4ED16E4B1B88FF221340012B38D0E6
:1009C000002B24D0022B3CD001212000FFF754FD46
:1009D000D7E72868684B1B889BB21222122B02D8DB
:1009E000654B1A8892B200236A49FFF7AFFCC8E74B
:1009F0002868614B1B889BB24322432B02D85E4B75
:100A00001A8892B200236449FFF7A0FCB9E7634B50
:100A10001B6801932868584B1B889BB20422042B47
:100A200002D8554B1A8892B2002301A9FFF78EFC19
:100A3000A7E7514B1A88D2B228685949FFF7EAFE56
:100A40009FE74D4B1A88D2B228685649FFF7E2FE5D
:100A500097E701212000FFF70FFD92E7444B1B8829
:100A60002B712000FFF718FD2000FFF733FD88E70A
:100A7000291D286800230122FFF768FC81E74A4905
:100A800000230B8028680222FFF760FC79E74649C3
:100A900000230B8028680222FFF758FC71E7424BC5
:100AA00000221A80334B1A8850210A403F490A70AD
:100AB0001A880F210A401A801B889BB2032B1FD86B
:100AC0003A4B1B78002B10D02A4B1B8808335B0154
:100AD000E418A3799B06DB0F334A138028680023B0
:100AE00002223149FFF732FC4BE7224B1B880833C7
:100AF0005B01E418A379DB06DB0F2B4A1380EDE7DB
:100B000001212000FFF7B8FC3BE701212000FFF79F
:100B1000B3FC36E7174B1A8880210A4023490A7034
:100B20001A880F210A401A80114B1B889BB2002B98
:100B300046D1104B1B889BB2002B41D00D4B1B881C
:100B40009BB2032B3CD8194B1B78002B30D0094BA0
:100B50001B8808335B01E31820225A712000FFF73D
:100B60009BFC0EE798000020790000207800002010
:100B7000820000207C0000207E0000200203000094
:100B80000103000021200000A1210000212200001B
:100B9000010B0000D019000004000020CC19000057
:100BA000E4190000F0190000800000207A00002005
:100BB000474B1B8808335B01E31810225A71CDE7BD
:100BC00001212000FFF758FCDBE62000FFF764FC62
:100BD000D7E63F4B1A8880210A403E490A701A889E
:100BE0000F210A401A803C4B1B889BB2002B56D128
:100BF000374B1B889BB2002B51D0354B1B889BB2C7
:100C0000032B4CD8334B1B78002B25D0304B1B8843
:100C100008335B01E3189B799B0619D52C4A13888E
:100C200008335B01E31811311971138808335B0134
:100C3000E318DB795B060BD5138808335B01E318F7
:100C40002031D971138808335B01E31802221A712D
:100C50002000FFF721FC94E61D4B1B8808335B0145
:100C6000E3189B79DB06F3D5194A138808335B0137
:100C7000E31810211971138808335B01E318DB793D
:100C80009B06E5D5138808335B01E3181031D97151
:100C9000138808335B01E31801221A71D8E7012198
:100CA0002000FFF7E9FB6CE62000FFF7F5FB68E6A4
:100CB00028680A4B1B889BB20822082B02D8074BD6
:100CC0001A8892B200230649FFF740FB59E6C04656
:100CD0007C0000207A000020820000207E0000209E
:100CE0004800002000B583B00190054B186801232F
:100CF000012201A9FFF72AFB012003B000BDC04675
:100D00001C02002010B582B06B46DC1D044B186835
:100D100001222100FFF76CFB207802B010BDC04615
:100D20001C02002010B50748FFF734FA030000202A
:100D3000002B06D0034B1A684823FF33D05CC00752
:100D4000C00F10BD1C02002070B505000C00044B44
:100D5000186801230A002900FFF7F8FA200070BD87
:100D60001C02002070B504000D000848FFF712FABD
:100D70000023002801D1180070BD044B18682A0018
:100D80002100FFF735FB0300F5E7C0461C020020F9
:100D9000F8B505000E000B48FFF7FCF900280DD050
:100DA000002E0CD03400074F220029003868FFF7CE
:100DB0001FFB241A2D18002CF6D100E0002630006D
:100DC000F8BDC0461C02002010B50C00C36811001D
:100DD00020009847034B802212055A61024B64227F
:100DE0001A8010BD004400419400002030B50C4B27
:100DF00018600C4B1B68984210D20B4A0B4B1D1C01
:100E00000B4C08494308D3611580137DDB07FCD5E3
:100E100023689B00C0180B688342F3D830BDC046DE
:100E200088000020380200200040004102A5FFFF9A
:100E300044020020012805D0002802D1054B064AB3
:100E40001A607047034B054A1A60054B01221A705D
:100E5000F7E7C0468C020020881A00006C1A0000D8
:100E600084000020F0B585B0214B1B78002B37D0D3
:100E7000042908D002290FD004784E001CD004ABFE
:100E800098190B3804E004684E0004AB98190B382D
:100E900000250F22302708E00488F5E73733037078
:100EA000240901380135B54206D213002340092B2D
:100EB000F4D83B430370F3E701AB30221A70483299
:100EC0005A704A1C52000A2199549E190331F1703C
:100ED0000232084908681900FFF776FF05B0F0BD37
:100EE000044B1B680A0001001800FFF76DFFF5E7CF
:100EF000860000208C02002080B500AF074B1B78D5
:100F0000002B09D172B6EFF30883054A136003681A
:100F100083F3088843681847BD4680BD85000020DC
:100F200090020020104B1B889BB2002B0AD00E4A67
:100F30001388013B9BB21380002B03D10B4B802203
:100F400012059A610A4B1B889BB2002B0AD0084AF3
:100F50001388013B9BB21380002B03D1034A9833C3
:100F60000821D1507047C046940000200044004141
:100F70008C000020F0B5DE4657464E464546E0B5AB
:100F80008BB000AF0823F918C74B0A0031CB31C230
:100F900031CB31C211CB11C2C44A93685B035B0FE2
:100FA0009B005958C24B196093689BB2C1480360BB
:100FB0004B43C1490B60138BDB05DB0FBF4A13703A
:100FC000BF4B00221A60BF4B7A321A7079E2BE4BD7
:100FD0001B78002B50D1BB4B1B78532B53D0522B7B
:100FE00000D1C3E04F2B00D1DCE0482B00D1DFE083
:100FF000572B00D1E2E06F2B00D1E5E0682B00D148
:10100000F5E0772B00D10AE1AC4A1278002A02D130
:10101000472B00D11BE1542B00D12CE14E2B00D1EA
:1010200033E1562B00D173E1582B00D18DE1592BC0
:1010300000D19AE15A2B5AD1A44B1A68A04B1B68D5
:10104000002A00D1EDE11E0094469C44E0460023B6
:101050001D003078290000F015FB050001364346DD
:10106000B342F6D19A4B186801229A49FFF7ACFEB9
:101070002B0007220F26DAE1954B186802229649C9
:10108000FFF7A2FEA7E7954B1A68954B1B689A429B
:101090001ED9944801680131016001339048036012
:1010A000D31A8A4A126893424CD28F4A1360844BF7
:1010B00018688D4E326800F065FC336888490A680C
:1010C000D2180A6087490A68D2180A60874A1370E2
:1010D000834A1368013B1360824A1368013B136023
:1010E000824B1B78794A11688B422ED3C046754BD0
:1010F0007A221A70754B00221A60734B1B78002BF2
:1011000000D0AAE1764A13680133136075490A6872
:1011100001320A60714A1268934200D3D1E1236818
:101120001B78FF2BEED0232B00D150E71A00303A6A
:10113000092A00D998E165490A681201303B134336
:101140000B60DFE7684B1A60B1E7C91A5C4B18689F
:101150005F4B1B689B6998470028C7D0644A94235B
:101160000821D150634B64221A80BFE7534B1B7890
:10117000002B07D0604B524A12689A4202D8504B5B
:101180005E4A1A60514B19684D4B1868504B1B68EA
:101190005B699847564B802212055A61584B64226E
:1011A0001A80A4E7464B1B68484A12681A709EE7EB
:1011B000434B1B68454A12681A8098E7404B1B68EE
:1011C000424A12681A6092E73C4B1B78002B08D009
:1011D0003B4B1B68043B4B4A934202D8384B3B4A7B
:1011E0001A60374B18680121FFF73CFE7FE7334B4D
:1011F0001B78002B09D0324B1B68043B414A9342B9
:1012000003D8324B00221A6004E02D4B1B681A8869
:101210002E4B1A6002212D48FFF724FE67E7274B6B
:101220001B78002B09D0264B1B68043B354A9342A0
:1012300003D8264B00221A6004E0214B1B681A6871
:10124000224B1A6004212148FFF70CFE4FE71F4B89
:101250001868FFF751FE2C4B1B6883F3088862B6B1
:101260002A4B1B78002B00D141E7194B1B681B68E8
:10127000062098473BE7144B01221A70144B18685C
:1012800001321549FFF7A0FD31E70F4B1B78002B0A
:1012900003D00D4B00221A7029E70D4B186802226B
:1012A0000D49FFF791FDF4E7001A000000400041EE
:1012B000440200203C02002038020020850000206B
:1012C00088020020340200208600002094020020C2
:1012D0008C020020601A0000341A00002C0200204A
:1012E0004002002030020020980200202802002046
:1012F000004400418C000020FFFFFF1F0050002031
:1013000094000020FBFFFF1F9002002084000020BB
:10131000784E012278493068FFF756FD032277495D
:101320003068FFF751FD012275493068FFF74CFD29
:101330000E2274493068FFF747FD7349734B1960FB
:1013400030681722FFF740FDD1E6002A02D1704B2A
:10135000186801E080208001FFF748FD654B1868A0
:1013600003226C49FFF730FDC1E6694B1B68002B77
:101370000AD1694B1A68694B1A605E4B18680322E0
:101380006749FFF721FDB2E6002A05D080239B01C3
:10139000644A12689A4217D15D4B1E68B6085F4BCB
:1013A0001B689C465C4B1B689B465F4A53688021C8
:1013B0008B435360002EE0D010005C4B9A465C4B90
:1013C00099465C4B98460FE080208001FFF70EFDA8
:1013D000E2E7002342460280027DD207FCD59A0054
:1013E00093449444F61AC8D053460380037DDB0728
:1013F000FCD54B461B68032BEBD9002E0FD00021E8
:1014000000235A4665466D5855500133484A1268C4
:1014100092089342DED20431B342F2D1DAE73300CC
:10142000D8E700231D001DE6D055013A09D331004D
:1014300019401B09080030300929F5DD3731080053
:10144000F2E72C4E082239003068FFF7BDFC306807
:1014500003223949FFF7B8FC49E6264B18680132E8
:101460003649FFF7B1FC4DE61A00413A052A06D885
:1014700027490A681201373B13430B6042E61A0002
:10148000613A052A06D822490A681201573B1343DC
:101490000B6037E62C2B05D0294A13701C4B002219
:1014A0001A602FE61A4B1C4A1968116000221A6054
:1014B00028E60023234A1360144A23491160234A73
:1014C00013600C4B1B681B6940211F48984700287C
:1014D000EFD01F4A94230821D1501E4B64221A805A
:1014E000184B1860094B184A1A60184B00221A60F2
:1014F000064C14E68C020020381A0000301A000056
:101500003C1A0000201A0000401A0000300200209F
:1015100094020020581A0000880200209000002049
:101520005C1A0000880000200040004144A5FFFF35
:101530004402002004A5FFFF641A0000681A00009E
:10154000340200202C02002048020020400200202B
:10155000004400418C00002010B51E4B4A215A5C0B
:10156000012422435A543522985C3B3988439854CD
:10157000985C0221084398544B20195C214319546C
:10158000995C3C3801409954995C2020014399545E
:10159000114A136A04210B431362104B104A5A80FC
:1015A0001A0053785BB2002BFBDBC42292030D4977
:1015B0000D48FEF7A9FD00230C4A13700C4A137066
:1015C0000C4A13700C4A13700C4A13700C4A1370B7
:1015D00010BDC0460044004100040040000C004023
:1015E000144000002AF60000000800429C0200207F
:1015F000260300209D020020A002002027030020D7
:101600002403002010B5C1B20248FEF7A9FD012055
:1016100010BDC04600080042024B187E4007C00FB4
:101620007047C0460008004210B5FFF7F5FF0028DC
:10163000FBD00248FEF79AFD10BDC04600080042EC
:1016400010B5FFF7E9FF0023002801D1180010BDF5
:10165000FFF7EAFF233843424341F7E770B5040040
:101660000E1E06D045182078FFF7CCFF0134A542A6
:10167000F9D1300070BD10B50400FFF7D5FF207020
:10168000012010BD0B0A43405B000902024A985A30
:10169000484080B27047C046A41A0000F0B5DE464C
:1016A00057464E464546E0B583B001908B464C4BBD
:1016B00000221A70002918D14A4B01321A70484C86
:1016C0000025FFF7B1FF2378002B1CD1C0B24328BF
:1016D00003D071287CD01528F3D101239946424BC1
:1016E00098461C003F4B9A4662E03F4B19803D4BA9
:1016F00000221A700B005B06E1D00B0080337F32B2
:1017000093439B46DBE7364B1D70FFF78DFFC0B25E
:10171000334B1B78002BDAD0314B00221A7000209B
:1017200057E02F4B00221A70002052E00420FFF7F0
:1017300069FFFFF779FF2B4B00221A70012048E068
:101740003D78013B238001372800FFF75BFF0099BC
:101750002800FFF797FF0090013E002E08D0434677
:101760001B88002BECD152461578002DECD0E7E712
:101770000500000AC0B2FFF745FFE8B2FFF742FFDD
:10178000FFF752FF164B1B78002BCAD1FF231840DE
:1017900006280AD14B460133DBB2994680235B42CF
:1017A0009C46E344019B803301935B46002BBDD0F4
:1017B0000120FFF727FF4846FFF724FF4B46D84399
:1017C000C0B2FFF71FFF019F802600230093C6E7EA
:1017D000002003B03CBC90469946A246AB46F0BD03
:1017E00024030020250300209E020020F0B5D646E9
:1017F000474680B583B006000F1E2BD0002400237F
:101800000193194B9A46194B984608E0731C3570A2
:101810001E00802F18D00134A4B2A7421ED0FFF7BB
:1018200003FFC5B253461B78002B15D10199280040
:10183000FFF728FF019043461B88002BE6D10C4B95
:101840001B78002BE7D0E1E7084A1288013A0749E4
:101850000A80E0E7019101E001230193019803B0C0
:101860000CBC90469A46F0BD240300209E02002046
:1018700025030020F0B585B005003E4B00221A700C
:10188000002904D13C4B01321A7064260AE03B4B1C
:101890001980394B00221A70F7E7002C0ED1013E57
:1018A000002E65D04320FFF7ADFE354CFFF7B4FEA8
:1018B0000028F2D1002CF2D0013CF7E701242D4E94
:1018C00041E02C4B00221A7000204BE0022103A8BB
:1018D000FFF78CFF80212800FFF788FF0190254B40
:1018E0001B78002B08D0234B1B78002B36D0214BC4
:1018F00000221A70002035E0FFF796FE0700FFF780
:1019000093FE1C4B1A78012AEDD03F02381880B2A2
:10191000019B834203D103AB1B78A34203D0182061
:10192000FFF770FEDFE7E34303AA5278DBB29A4287
:10193000F5D10620FFF766FE0E4B1B78002BD6D1A3
:101940000134E4B28035FFF76FFE3378002BB8D155
:10195000FF2318400128B9D0042805D0064B0022E7
:101960001A70012005B0F0BD0620FFF74BFEF5E729
:101970000020F7E724030020250300209E0200201A
:1019800000350C00002310B59A4200D110BDCC5C8C
:10199000C4540133F8E703001218934200D1704792
:1019A00019700133F9E70023C25C0133002AFBD12F
:1019B000581E7047F8B5C046F8BC08BC9E46704734
:1019C000F8B5C046F8BC08BC9E467047040309043D
:1019D000120100020200004041234D0000020102FA
:1019E0000001000041726475696E6F204C4C430029
:1019F00041726475696E6F205A65726F0000000055
:101A0000080000001000000020000000400000005E
:101A1000800000000001000000020000000400003F
:101A20005B41726475696E6F3A58595A505D000097
:101A3000322E30000A0D0000760000002000000069
:101A4000204A756E20313120323032322031373A1F
:101A500035343A31390A0D00580A0D00590A0D0083
:101A60005A000000230A0D003E0000000516000089
:101A700029160000191600005D16000077160000F8
:101A80009D16000075180000E50C0000050D000013
:101A9000250D0000490D0000650D0000490D0000F6
:101AA000910D000000002110422063308440A550B9
:101AB000C660E770088129914AA16BB18CC1ADD194
:101AC000CEE1EFF13112100273325222B55294423C
:101AD000F772D662399318837BB35AA3BDD39CC3E4
:101AE000FFF3DEE36224433420040114E664C77488
:101AF000A44485546AA54BB528850995EEE5CFF534
:101B0000ACC58DD55336722611163006D776F666DB
:101B10009556B4465BB77AA719973887DFF7FEE783
:101B20009DD7BCC7C448E5588668A77840086118A7
:101B300002282338CCC9EDD98EE9AFF948896999D3
:101B40000AA92BB9F55AD44AB77A966A711A500A7B
:101B5000333A122AFDDBDCCBBFFB9EEB799B588B23
:101B60003BBB1AABA66C877CE44CC55C222C033CC7
:101B7000600C411CAEED8FFDECCDCDDD2AAD0BBD73
:101B8000688D499D977EB66ED55EF44E133E322E1B
:101B9000511E700E9FFFBEEFDDDFFCCF1BBF3AAFC3
:101BA000599F788F8891A981CAB1EBA10CD12DC121
:101BB0004EF16FE18010A100C230E32004502540B7
:101BC00046706760B9839893FBA3DAB33DC31CD317
:101BD0007FE35EF3B1029012F322D2323542145207
:101BE00077625672EAB5CBA5A89589856EF54FE563
:101BF0002CD50DC5E234C324A01481046674476457
:101C000024540544DBA7FAB79987B8975FE77EF7B6
:101C10001DC73CD7D326F2369106B01657667676A6
:101C2000154634564CD96DC90EF92FE9C899E98982
:101C30008AB9ABA94458654806782768C018E108F6
:101C40008238A3287DCB5CDB3FEB1EFBF98BD89B56
:101C5000BBAB9ABB754A545A376A167AF10AD01A46
:101C6000B32A923A2EFD0FED6CDD4DCDAABD8BADA2
:101C7000E89DC98D267C076C645C454CA23C832C96
:101C8000E01CC10C1FEF3EFF5DCF7CDF9BAFBABFF6
:101C9000D98FF89F176E367E554E745E932EB23EE6
:081CA000D10EF01E000000004F
:101CA8000114000009024300020100803209040007
:101CB80000010202000005240010010424020005AE
:101CC800240600010524010001070583030800FF1D
:101CD80009040100020A0000000705810240000013
:101CE800070502024000000000C2010000000800D1
:081CF80069000000410000003A
:040000030000064DA6
:00000001FF
