:10000000001C0020B9050000A9050000AD05000096
:1000100000000000000000000000000000000000E0
:10002000000000000000000000000000B10500001A
:100030000000000000000000B505000035070000CA
:1000400010B5064C2378002B07D1054B002B02D0AE
:10005000044800E000BF0123237010BD58000020B9
:1000600000000000A4170000044B10B5002B03D0C3
:100070000349044800E000BF10BDC0460000000076
:100080005C000020A41700001C4B1B78002B0BD138
:100090001B4B1B781B4A11785B18DBB213701A4A92
:1000A0009C2380214900D150144A13780133DBB2DC
:1000B0001370144B1B78DBB2F02B04D8114B1B7858
:1000C000DBB2092B0BD80E4A13785BB25B425BB2F2
:1000D000137013780B4A11785B18DBB21370074B5F
:1000E0001B78084A1278DBB2934200D07047064A68
:1000F0009C2380214900D150F8E7C04674000020BD
:10010000000000200100002000440041F8B5040078
:1001100003689A8B120707D40822FF329B5CDB0628
:100120002FD500F04BFB2CE008229A8378329A728C
:10013000802149001120585440260621FF315E5489
:1001400082256D005A55104A5168104F3940C02021
:1001500080050143516051693940084350610C49A1
:1001600011600C49116151680B48084080218902D7
:10017000014351605168890B890351605E5500232A
:1001800023712079F8BDC04698010020FFFFFF8F42
:100190009800002018010020FF3F00F001600023BC
:1001A00003714371034B83600B78022213430B707E
:1001B0007047C0460D01000010B5394AD3692021AF
:1001C0000B43D361374B38315A5C012422435A54D4
:1001D0003C22985C493988439854985C062108432E
:1001E00098545920195C21431954995C4A380140AC
:1001F0009954995C6020014399542B4B2B4A5A80A7
:100200001A0053785BB2002BFBDB294A13780121DB
:100210000B4313709378DB07FCD4264B1B689B03BE
:10022000DB0E1F2B36D022490A8D9B01224802404B
:1002300013430B851F4B1B685B02DB0E1F2B2BD060
:100240001B490A8D1F20824313430B85194B1A68E3
:100250009201520F072A21D0154B198D120317480E
:1002600001400A431A8519787F220A401A701A78C9
:1002700004210A431A70124858621A890C218A43D1
:100280001A811A890B398A431A818022002101F0D0
:1002900010F910BD1A3BC6E7023BD1E7043ADBE791
:1002A0000004004000440041000C004006400000F3
:1002B00000500041246080003FF8FFFFFF8FFFFFE8
:1002C00098010020F0B5C64600B5050016001C00D8
:1002D00098465A01214B9B1810335B685B005B0FFB
:1002E000033301229A40B2422BD862011B4B9B1868
:1002F00058698022120602435A616201174B9B180B
:100300001A0019615B69B104890C9B0B9B030B43B9
:100310005361536912490B405361083464012C192D
:100320000223E3716279823B1343637140460830D4
:1003300040012818C3799B07FCD5300004BC9046C7
:10034000F0BD27007B1E9F41BF01064BFF18320006
:10035000380001F0A5F83900CFE7C0469801002029
:10036000FF3F00F01801002070B505000E001400DA
:100370001B4B1B78002B14D11A4B1B4A1A645A6C66
:10038000920B92035A645A6C18490A405A64A2228A
:100390005200835C40210B438354114B443AFF3A93
:1003A0001A704823FF33EB5C0020DB0716D50D4B9A
:1003B0005B6C9B049B0CA34203D20A4B5C6CA404B1
:1003C000A40C22000849300001F06AF84823FF33EA
:1003D0000122EA54024B00221A70200070BDC04670
:1003E0007500002098010020D8000020FF3F00F099
:1003F000002906D10622FF32835C10210B4383546F
:1004000070470622FF32835C20210B438354F7E7B9
:100410000A4A53699B0B9B0353610823FF33022253
:10042000C2540622FF32815C883BFF3B0B4383545E
:100430000822FF32835C9B07FCD57047980100209F
:1004400080235B421943C9B28172704770B5A02303
:100450005B000322C254134B5A6C134C2240C02140
:1004600089050A435A6440254622FF3285540F4AC3
:100470001A6490225200302686545A6B224011434F
:1004800059638021922252008154094A1A63B02292
:10049000520085545A6F22405A67B2235B00C15400
:1004A00070BDC04698010020FFFFFF8FD8000020DC
:1004B00058010020024A53785BB2002BFBDB7047E7
:1004C000000C004002491022CB681A42FCD0704751
:1004D0000008004070B5284A53681E218B4302244F
:1004E00023435360254DAC60FFF7E4FF244B6B6062
:1004F000FFF7E0FF234B9C84FFF7E4FF224B1B68D0
:100500009B0E3F2B35D09B02204A13431D4C204AA3
:10051000E262A3620025A584FFF7D4FF1D4BA384EC
:10052000FFF7D0FFA38C02263343A384FFF7CAFF53
:10053000124C63883F229343334363806388802255
:10054000D20113436380A560FFF7B4FF124B6360D1
:10055000FFF7B0FF114A124B53601248036A1B02A7
:100560001B0AC02109060B43036295600723136031
:1005700070BD203BC7E7C04600400041000C004072
:10058000060001000008004024608000FF01000018
:1005900080BB0A1C240500000007030010E000E0F7
:1005A000E703000000ED00E00EBEFEE70DBEFEE733
:1005B00005BEFEE702BEFEE710B5164A164B9A428C
:1005C00015D0164A134B9A4211D01A00124B9A4278
:1005D0000DD20333124A9B1A9B0801339B00002261
:1005E0000C480E498C58845004329A42FAD10D4A74
:1005F0000D4B9A420AD009D2111D03335B1A032016
:1006000083435B18002102C29A42FCD100F00EF82D
:10061000FEE7C0460000002058000020A817000098
:1006200004000020580000209C020020F8B500AF14
:10063000344B1B68013323D0334B344A1360043BE3
:10064000FF2213421CD13249C73A8A5CD2070FD528
:10065000304A002111602B4A126882F30888FF2279
:1006600093432D4A9360294B1B681B68184707E08A
:10067000284A1168294A914227D1264B00221A6044
:10068000FFF728FF62B600F05BF80400244B8821D6
:10069000802252005A50F83A5A5010315A50802253
:1006A00012059A609A611F4A1F4B53601A48036AE9
:1006B0001B021B0AC02109060B430362002393603F
:1006C000073313600126194D0DE0124A13491160DA
:1006D000174A013A002AFCD10E4A00211160BAE7FC
:1006E0002B78002B07D12000A36898470028F7D06B
:1006F0000E4B1E70F4E7002000F042FB00F0D2FB2E
:10070000FCE7C04600200000042000001802002082
:1007100000040040FC1F002000ED00E0358173075D
:100720000044004110E000E0E703000076000020F4
:1007300048E8010010B5FFF7A7FC00F08BFB10BDE7
:1007400010B5054C054B2360FFF736FD21682000EE
:10075000FFF724FD200010BD1C02002000500041C6
:1007600070B5C0B005000C001600080000F0A9FE2E
:10077000400002306B46187003236A46537023789A
:10078000002B17D07608012E16DD012269460231B2
:100790000134881C0B8001322378002B02D0010029
:1007A000B242F5DB5200002369462800FFF78AFDBC
:1007B00040B070BD0122F5E70122F3E7F0B583B048
:1007C000050004680823FF331022E254B84B1A785E
:1007D000B84802705A78B84E32709978B74A11808A
:1007E0001188DF783F02394311801979B44A1180AA
:1007F00011885F793F02394311809979B14A11809C
:100800001188DB791B020B43138082235B0040229B
:10081000E254337802781B021343AB4A934200D16F
:100820001EE125DC80225200934255D012DD812248
:100830005200934200D172E100DA6CE1FF32FF32E4
:10084000934200D107E1A14A93420CD12000FFF767
:10085000DFFD3CE0812B00D1BFE0822B00D1C4E062
:10086000802B00D1B1E001212000FFF7C1FD2EE077
:1008700090221201934200D196E012DD944A9342F5
:1008800000D1B7E125DD934A934200D1B6E1924A07
:100890009342E8D1894B1B886B712000FFF7B8FDAC
:1008A00015E0D022D20093421BD08822120193423D
:1008B00000D183E0A022D2009342D4D12000FFF7E0
:1008C000A7FD7E4B198889B22868FFF7B9FD03B0F0
:1008D000F0BD824A9342C6D101212000FFF788FD76
:1008E000F5E7764B1B881B0A012B18D0734B1B882E
:1008F0001B0A022B22D0714B1B881B0A032B4ED1E3
:100900006E4B1B88FF221340012B38D0002B24D0C4
:10091000022B3CD001212000FFF76AFDD7E72868B1
:10092000684B1B889BB21222122B02D8654B1A8887
:1009300092B200236A49FFF7C5FCC8E72868614BFB
:100940001B889BB24322432B02D85E4B1A8892B27B
:1009500000236449FFF7B6FCB9E7634B1B680193BA
:100960002868584B1B889BB20422042B02D8554B95
:100970001A8892B2002301A9FFF7A4FCA7E7514B04
:100980001A88D2B228685949FFF7EAFE9FE74D4B13
:100990001A88D2B228685649FFF7E2FE97E701218C
:1009A0002000FFF725FD92E7444B1B882B712000A8
:1009B000FFF72EFD2000FFF749FD88E7291D286875
:1009C00000230122FFF77EFC81E74A4900230B80C8
:1009D00028680222FFF776FC79E7464900230B805E
:1009E00028680222FFF76EFC71E7424B00221A8052
:1009F000334B1A8850210A403F490A701A880F2148
:100A00000A401A801B889BB2032B1FD83A4B1B78D5
:100A1000002B10D02A4B1B8808335B01E418A37904
:100A20009B06DB0F334A13802868002302223149DA
:100A3000FFF748FC4BE7224B1B8808335B01E418A7
:100A4000A379DB06DB0F2B4A1380EDE701212000A1
:100A5000FFF7CEFC3BE701212000FFF7C9FC36E79A
:100A6000174B1A8880210A4023490A701A880F21DF
:100A70000A401A80114B1B889BB2002B46D1104BA9
:100A80001B889BB2002B41D00D4B1B889BB2032BC4
:100A90003CD8194B1B78002B30D0094B1B880833EE
:100AA0005B01E31820225A712000FFF7B1FC0EE72A
:100AB00098000020780000207700002080000020AF
:100AC0007A0000207C0000200203000001030000E7
:100AD00021200000A121000021220000010B0000C4
:100AE000EC14000004000020E814000000150000D1
:100AF0000C1500007E00002079000020474B1B8869
:100B000008335B01E31810225A71CDE70121200060
:100B1000FFF76EFCDBE62000FFF77AFCD7E63F4BE1
:100B20001A8880210A403E490A701A880F210A401B
:100B30001A803C4B1B889BB2002B56D1374B1B882D
:100B40009BB2002B51D0354B1B889BB2032B4CD84A
:100B5000334B1B78002B25D0304B1B8808335B01AF
:100B6000E3189B799B0619D52C4A138808335B013F
:100B7000E31811311971138808335B01E318DB792D
:100B80005B060BD5138808335B01E3182031D9715C
:100B9000138808335B01E31802221A712000FFF763
:100BA00037FC94E61D4B1B8808335B01E3189B79E7
:100BB000DB06F3D5194A138808335B01E3181021CB
:100BC0001971138808335B01E318DB799B06E5D5BF
:100BD000138808335B01E3181031D9711388083387
:100BE0005B01E31801221A71D8E701212000FFF709
:100BF000FFFB6CE62000FFF70BFC68E628680A4B59
:100C00001B889BB20822082B02D8074B1A8892B285
:100C100000230649FFF756FB59E6C0467A0000203C
:100C200079000020800000207C0000204800002087
:100C300000B583B00190054B18680123012201A97A
:100C4000FFF740FB012003B000BDC0461C0200209E
:100C500010B582B06B46DC1D044B186801222100E0
:100C6000FFF782FB207802B010BDC0461C020020B6
:100C700010B50748FFF74AFA03000020002B06D002
:100C8000034B1A684823FF33D05CC007C00F10BD68
:100C90001C02002070B505000C00044B18680123ED
:100CA0000A002900FFF70EFB200070BD1C02002087
:100CB00070B504000D000848FFF728FA002300284B
:100CC00001D1180070BD044B18682A002100FFF7FD
:100CD0004BFB0300F5E7C0461C020020F8B50500F9
:100CE0000E000B48FFF712FA00280DD0002E0CD092
:100CF0003400074F220029003868FFF735FB241A1B
:100D00002D18002CF6D100E000263000F8BDC046BA
:100D10001C02002010B50C00C36811002000984789
:100D2000034B802212055A61024B64221A8010BDC7
:100D3000004400419400002030B50C4B18600C4B6F
:100D40001B68984210D20B4A0B4B1D1C0B4C0849D8
:100D50004308D3611580137DDB07FCD523689B0016
:100D6000C0180B688342F3D830BDC046880000200D
:100D7000380200200040004102A5FFFF440200208D
:100D8000002802D1014B024A1A6070478C020020F1
:100D900088150000F0B585B0214B1B78002B37D0AB
:100DA000042908D002290FD004784E001CD004ABCF
:100DB00098190B3804E004684E0004AB98190B38FE
:100DC00000250F22302708E00488F5E73733037049
:100DD000240901380135B54206D213002340092BFE
:100DE000F4D83B430370F3E701AB30221A7048326A
:100DF0005A704A1C52000A2199549E190331F1700D
:100E00000232084908681900FFF784FF05B0F0BDF9
:100E1000044B1B680A0001001800FFF77BFFF5E791
:100E2000840000208C02002080B500AF074B1B78A7
:100E3000002B09D172B6EFF30883054A13600368EB
:100E400083F3088843681847BD4680BD83000020AF
:100E500090020020104B1B889BB2002B0AD00E4A38
:100E60001388013B9BB21380002B03D10B4B8022D4
:100E700012059A610A4B1B889BB2002B0AD0084AC4
:100E80001388013B9BB21380002B03D1034A983394
:100E90000821D1507047C046940000200044004112
:100EA0008C000020F0B5DE4657464E464546E0B57C
:100EB0008BB000AF0823F918C74B0A0031CB31C201
:100EC00031CB31C211CB11C2C44A93685B035B0FB3
:100ED0009B005958C24B196093689BB2C14803608C
:100EE0004B43C1490B60138BDB05DB0FBF4A13700B
:100EF000BF4B00221A60BF4B7A321A7079E2BE4BA8
:100F00001B78002B50D1BB4B1B78532B53D0522B4B
:100F100000D1C3E04F2B00D1DCE0482B00D1DFE053
:100F2000572B00D1E2E06F2B00D1E5E0682B00D118
:100F3000F5E0772B00D10AE1AC4A1278002A02D101
:100F4000472B00D11BE1542B00D12CE14E2B00D1BB
:100F500033E1562B00D173E1582B00D18DE1592B91
:100F600000D19AE15A2B5AD1A44B1A68A04B1B68A6
:100F7000002A00D1EDE11E0094469C44E046002387
:100F80001D003078290000F07FFA05000136434645
:100F9000B342F6D19A4B186801229A49FFF7BAFE7C
:100FA0002B0007220F26DAE1954B1868022296499A
:100FB000FFF7B0FEA7E7954B1A68954B1B689A425E
:100FC0001ED99448016801310160013390480360E3
:100FD000D31A8A4A126893424CD28F4A1360844BC8
:100FE00018688D4E326800F05BFA336888490A68E9
:100FF000D2180A6087490A68D2180A60874A1370B3
:10100000834A1368013B1360824A1368013B1360F3
:10101000824B1B78794A11688B422ED3C046754BA0
:101020007A221A70754B00221A60734B1B78002BC2
:1010300000D0AAE1764A13680133136075490A6843
:1010400001320A60714A1268934200D3D1E12368E9
:101050001B78FF2BEED0232B00D150E71A00303A3B
:10106000092A00D998E165490A681201303B134307
:101070000B60DFE7684B1A60B1E7C91A5C4B186870
:101080005F4B1B689B6998470028C7D0644A94232C
:101090000821D150634B64221A80BFE7534B1B7861
:1010A000002B07D0604B524A12689A4202D8504B2C
:1010B0005E4A1A60514B19684D4B1868504B1B68BB
:1010C0005B699847564B802212055A61584B64223F
:1010D0001A80A4E7464B1B68484A12681A709EE7BC
:1010E000434B1B68454A12681A8098E7404B1B68BF
:1010F000424A12681A6092E73C4B1B78002B08D0DA
:101100003B4B1B68043B4B4A934202D8384B3B4A4B
:101110001A60374B18680121FFF73CFE7FE7334B1D
:101120001B78002B09D0324B1B68043B414A934289
:1011300003D8324B00221A6004E02D4B1B681A883A
:101140002E4B1A6002212D48FFF724FE67E7274B3C
:101150001B78002B09D0264B1B68043B354A934271
:1011600003D8264B00221A6004E0214B1B681A6842
:10117000224B1A6004212148FFF70CFE4FE71F4B5A
:101180001868FFF751FE2C4B1B6883F3088862B682
:101190002A4B1B78002B00D141E7194B1B681B68B9
:1011A000062098473BE7144B01221A70144B18682D
:1011B00001321549FFF7AEFD31E70F4B1B78002BCD
:1011C00003D00D4B00221A7029E70D4B186802223C
:1011D0000D49FFF79FFDF4E71C150000004000419A
:1011E000440200203C02002038020020830000203E
:1011F0008802002034020020840000209402002095
:101200008C0200207C150000501500002C020020EC
:101210004002002030020020980200202802002016
:10122000004400418C000020FFFFFF1F0050002001
:1012300094000020FBFFFF1F90020020820000208E
:10124000784E012278493068FFF764FD0322774920
:101250003068FFF75FFD012275493068FFF75AFDDE
:101260000E2274493068FFF755FD7349734B1960BE
:1012700030681722FFF74EFDD1E6002A02D1704BED
:10128000186801E080208001FFF756FD654B186863
:1012900003226C49FFF73EFDC1E6694B1B68002B3A
:1012A0000AD1694B1A68694B1A605E4B18680322B1
:1012B0006749FFF72FFDB2E6002A05D080239B0186
:1012C000644A12689A4217D15D4B1E68B6085F4B9C
:1012D0001B689C465C4B1B689B465F4A5368802199
:1012E0008B435360002EE0D010005C4B9A465C4B61
:1012F00099465C4B98460FE080208001FFF71CFD6B
:10130000E2E7002342460280027DD207FCD59A0024
:1013100093449444F61AC8D053460380037DDB07F8
:10132000FCD54B461B68032BEBD9002E0FD00021B8
:1013300000235A4665466D5855500133484A126895
:1013400092089342DED20431B342F2D1DAE733009D
:10135000D8E700231D001DE6D055013A09D331001E
:1013600019401B09080030300929F5DD3731080024
:10137000F2E72C4E082239003068FFF7CBFC3068CA
:1013800003223949FFF7C6FC49E6264B18680132AB
:101390003649FFF7BFFC4DE61A00413A052A06D848
:1013A00027490A681201373B13430B6042E61A00D3
:1013B000613A052A06D822490A681201573B1343AD
:1013C0000B6037E62C2B05D0294A13701C4B0022EA
:1013D0001A602FE61A4B1C4A1968116000221A6025
:1013E00028E60023234A1360144A23491160234A44
:1013F00013600C4B1B681B6940211F48984700284D
:10140000EFD01F4A94230821D1501E4B64221A802A
:10141000184B1860094B184A1A60184B00221A60C2
:10142000064C14E68C020020541500004C150000F8
:10143000581500003C1500005C150000300200202B
:101440009402002074150000880200209000002003
:1014500078150000880000200040004144A5FFFFEF
:101460004402002004A5FFFF801500008415000041
:10147000340200202C0200204802002040020020FC
:10148000004400418C0000200B0A43405B0009022D
:10149000024A985A484080B27047C046A4150000DE
:1014A000002310B59A4200D110BDCC5CC454013366
:1014B000F8E703001218934200D170471970013306
:1014C000F9E70023C25C0133002AFBD1581E7047A4
:1014D000F8B5C046F8BC08BC9E467047F8B5C04693
:1014E000F8BC08BC9E4670470403090412010002C0
:1014F0000200004041234D000002010200010000F3
:1015000041726475696E6F204C4C43004172647582
:10151000696E6F205A65726F0000000008000000BD
:1015200010000000200000004000000080000000CB
:101530000001000000020000000400005B41726432
:1015400075696E6F3A58595A505D0000322E30005E
:101550000A0D00007600000020000000204A756E91
:1015600020323120323032322031383A32363A3578
:10157000320A0D00580A0D00590A0D005A000000E9
:10158000230A0D003E000000310C0000510C000049
:10159000710C0000950C0000B10C0000950C0000CF
:1015A000DD0C000000002110422063308440A55073
:1015B000C660E770088129914AA16BB18CC1ADD199
:1015C000CEE1EFF13112100273325222B552944241
:1015D000F772D662399318837BB35AA3BDD39CC3E9
:1015E000FFF3DEE36224433420040114E664C7748D
:1015F000A44485546AA54BB528850995EEE5CFF539
:10160000ACC58DD55336722611163006D776F666E0
:101610009556B4465BB77AA719973887DFF7FEE788
:101620009DD7BCC7C448E5588668A77840086118AC
:1016300002282338CCC9EDD98EE9AFF948896999D8
:101640000AA92BB9F55AD44AB77A966A711A500A80
:10165000333A122AFDDBDCCBBFFB9EEB799B588B28
:101660003BBB1AABA66C877CE44CC55C222C033CCC
:10167000600C411CAEED8FFDECCDCDDD2AAD0BBD78
:10168000688D499D977EB66ED55EF44E133E322E20
:10169000511E700E9FFFBEEFDDDFFCCF1BBF3AAFC8
:1016A000599F788F8891A981CAB1EBA10CD12DC126
:1016B0004EF16FE18010A100C230E32004502540BC
:1016C00046706760B9839893FBA3DAB33DC31CD31C
:1016D0007FE35EF3B1029012F322D232354214520C
:1016E00077625672EAB5CBA5A89589856EF54FE568
:1016F0002CD50DC5E234C324A0148104667447645C
:1017000024540544DBA7FAB79987B8975FE77EF7BB
:101710001DC73CD7D326F2369106B01657667676AB
:10172000154634564CD96DC90EF92FE9C899E98987
:101730008AB9ABA94458654806782768C018E108FB
:101740008238A3287DCB5CDB3FEB1EFBF98BD89B5B
:10175000BBAB9ABB754A545A376A167AF10AD01A4B
:10176000B32A923A2EFD0FED6CDD4DCDAABD8BADA7
:10177000E89DC98D267C076C645C454CA23C832C9B
:10178000E01CC10C1FEF3EFF5DCF7CDF9BAFBABFFB
:10179000D98FF89F176E367E554E745E932EB23EEB
:0817A000D10EF01E0000000054
:1017A800011400000902430002010080320904000C
:1017B80000010202000005240010010424020005B3
:1017C800240600010524010001070583030800FF22
:1017D80009040100020A0000000705810240000018
:1017E800070502024000000000C2010000000800D6
:0817F80069000000410000003F
:04000003000005B93B
:00000001FF
